:020000040001F9
:10B00000183A0020F5B001000FB1010011B10100A4
:10B010000000000000000000000000000000000030
:10B0200000000000000000000000000013B101005B
:10B03000000000000000000015B1010017B1010080
:10B0400019B1010019B10100F1B8010019B10100F5
:10B0500019B101000000000001B2010019B10100A6
:10B0600019B1010019B1010019B1010019B10100B4
:10B0700019B1010019B1010019B1010019B10100A4
:10B0800019B1010021B5010019B1010019B1010088
:10B0900051B8010019B1010059B8010019B10100FE
:10B0A00019B1010019B1010000000000000000000A
:10B0B0000000000000000000000000000000000090
:10B0C0000348854600F08AF80048004719E501006A
:10B0D000183A0020401E00BF00BF00BF00BF00BFE5
:10B0E00000BF00BF00BF00BF00BF00BF00BFF1D165
:10B0F000704700000321094802680A4302600848BB
:10B1000002680A4302600748804707480047FEE795
:10B11000FEE7FEE7FEE7FEE7FEE70000240500404D
:10B12000540500408DB80100C1B0010030B50B4698
:10B13000014600202022012409E00D46D5409D4211
:10B1400005D31D469540491B254695404019154697
:10B15000521E002DF1DC30BD70B5002425460028BC
:10B1600001DA01244042002901DA01254942FFF7B2
:10B17000DDFFAC4200D04042002C00D0494270BDFF
:10B1800003460B439B0703D009E008C9121F08C000
:10B19000042AFAD203E00B780370401C491C521EAB
:10B1A000F9D27047D2B201E00270401C491EFBD2B6
:10B1B00070470022F6E710B513460A4604461946C2
:10B1C000FFF7F0FF204610BD03460A780270401CCE
:10B1D000491C002AF9D1184670470000064C012589
:10B1E000064E05E0E36807CC2B430C3C984710342F
:10B1F000B442F7D3FFF768FF1804020038040200D6
:10B20000F0B58BB0002700200A90FF200130099094
:10B210000125002416E0099803F09AFD00280BD0C0
:10B2200000BF704840682840002805D0099803F006
:10B2300087FD3846284307466D000998001D80B2F7
:10B240000990641C042CE6D3FF207D3003F080FDC0
:10B2500000280AD0FF207D3003F072FD0120C007D6
:10B26000074300BF604800690A903807000F0028B4
:10B270002AD00125002425E02846384000281FD088
:10B2800000BF5A48512109014018A10040581F2110
:10B2900009020840000A089000BF544851210901E2
:10B2A0004018A1004058032109040840000C0790F1
:10B2B000204602F017FB064607990898B04700BFE2
:10B2C0006D00641C042CD7D3F80FC00700287DD074
:10B2D000002008900790401E069000BF00200890B4
:10B2E000002464E04248005D0590C0210598884331
:10B2F00006463F480057401C002857D00120B04068
:10B3000006990840002851D0C021059808408011B6
:10B310000490304602F02AFB029002F0E3FA039018
:10B320000398002802D1049803283ED10120B040A0
:10B3300005460498032802D107982843079000BFC8
:10B3400005200007072109024018B10040580321D9
:10B3500009040840000C02900A982840002802D0F6
:10B360000298022806D00A98284000281CD102988A
:10B37000032819D1049803280FD10298022801D17B
:10B38000032000E0022001903046019903F0A7FC61
:10B390000898401CC0B2089000BF0398002803D052
:10B3A0003046039A0499904700BF00BF641C042CE8
:10B3B00098D3089800280ED000BF0B4909690846A9
:10B3C0000A99884203D10021089103E008E00A901D
:10B3D0000799069100BF0898002800D07EE700BFBB
:10B3E0000BB0F0BD0063004000050050006000405D
:10B3F000E82B0020C206D20E01219140014A1160C3
:10B400007047000080E200E0C206D20E01219140A8
:10B41000014A11607047000000E100E0C206D20E50
:10B4200001219140014A11607047000000E200E0F4
:10B4300010B5002819DA1A4A03071B0F083B9B08AE
:10B440009B00D2588307DC0EFF23A3409A438B074F
:10B450001B0E8407E40EA3401A43114B0407240F6C
:10B46000083CA408A4001A5118E00E4A03231B024A
:10B47000D21883089B00D2588307DC0EFF23A34019
:10B480009A438B071B0E8407E40EA3401A43054B17
:10B49000032424021B198408A4001A5110BD0000C3
:10B4A0001CED00E000E100E010B5002819DA1A4AAE
:10B4B00003071B0F083B9B089B00D2588307DC0E39
:10B4C000FF23A3409A438B071B0E8407E40EA3407F
:10B4D0001A43114B0407240F083CA408A4001A5176
:10B4E00018E00E4A03231B02D21883089B00D2588F
:10B4F0008307DC0EFF23A3409A438B071B0E8407B0
:10B50000E40EA3401A43054B032424021B198408AC
:10B51000A4001A5110BD00001CED00E000E100E0A5
:10B5200010B500200749086000210648416081608D
:10B53000C1600020034940390860486004F0E6FA21
:10B5400010BD000040110140F8B504460D461646F6
:10B5500000BF0E480078002801D100F0CDF900BFEF
:10B56000EFF310800746012080F3108800BF00BF72
:10B5700032462946204600F00BF80090F8B280F3DE
:10B58000108800BF00BF0098F8BD00005C2D0020AF
:10B59000F7B582B007461646039801901820784305
:10B5A0001B494018009000984069002804D00128E9
:10B5B00011D0022826D11EE0009800F0D5F90546EA
:10B5C000B54201D2002405E0344632460199009884
:10B5D00000F04DFB18E0009800F0C6F90546B542B2
:10B5E00001D2284600E030460446224601990098E0
:10B5F00000F03DFB08E032460199009800F0FAFAAD
:10B60000044601E0002400BF00BF204605B0F0BDA5
:10B61000742D00200FB438B5044606A800906A4681
:10B620002046059900F008F80546002000902846BD
:10B6300038BC08BC04B01847F7B59AB00D4614469C
:10B6400002A8159040201690002017901A98199083
:10B650000020189000BF2E786D1C002E00D1E4E071
:10B66000252E79D100270120149000BF2E78232E9B
:10B6700012D02B2E0CD02D2E02D0302E10D103E064
:10B68000012007436D1C0EE0022007436D1C0AE0F9
:10B69000042007436D1C06E0082007436D1C02E0F0
:10B6A0000020149000BF00BF14980028DED1129033
:10B6B00000BF2E78302E01DB392E00DD08E06D1C36
:10B6C0000A21129848433146303940181290F0E769
:10B6D00000BF002013902E782E2E11D16D1C00BFBC
:10B6E0002E78302E01DB392E00DD08E06D1C0A219A
:10B6F000139848433146303940181390F0E700BFA3
:10B700002E7800BF6C2E01D0682E02D16D1C2E78D1
:10B7100000E000E0F6E700BF702E63D008DC252EC5
:10B7200072D0582E38D0632E09D0642E71D114E017
:10B73000732E40D0752E1FD0782E6AD12BE0216851
:10B74000081D2060086814901498C0B2019015A8D4
:10B75000019900F02DFA5DE05FE02168081D20608E
:10B76000086814901298019700900A2215A8139B5C
:10B77000149900F007F94DE02168081D2060086861
:10B7800014901298019700900A2215A8139B1499FF
:10B7900000F080F93EE000BF2168081D20600868C5
:10B7A0001490129801970090102215A8139B1499D9
:10B7B00000F070F92EE02168081D206008680190F3
:10B7C00000BF019806780198401C0190002E00D11E
:10B7D00006E0314615A800F0EBF918980028F0DAD9
:10B7E00000BF17E02168081D206008681490002041
:10B7F00008210B4610220091019015A8149900F021
:10B8000049F907E000E004E0252115A800F0D0F98F
:10B8100000E000BF00BF6D1C03E0314615A800F03A
:10B82000C7F91898002800DB15E700BF1898002812
:10B830000BDD1798002804D002A9179A1A98FFF771
:10B8400083FE179918984018189018981DB0F0BDED
:10B8500010B504F059F810BD70B50B480068002809
:10B860000ED0094800688047044600BF2546002DD9
:10B8700004D000BF284600F041FC00BF00BF01E03B
:10B8800002F0E8FB70BD00006021002010B502F05E
:10B8900069FC002805D0104810494860C8131049B9
:10B8A000886102F043FC002802D001200D49886025
:10B8B00002F08EFC00280ED00B480068012807D04B
:10B8C0000A480949086000BF074800680128FBD101
:10B8D000C0200549486110BDDFFF07C000050040DA
:10B8E000006C00400006004000EC0640759300002C
:10B8F00010B504F023FB10BD10B5124C03202061DD
:10B90000606111A0A0611349E161012189022162F6
:10B910000021A1626162E1620BA020660E496166AE
:10B920001021A16600212167E16661670BA1E01D7E
:10B93000FFF74AFC0AA12046FFF746FC2020A07131
:10B9400010BD00005C2D00205465726D696E616C45
:10B9500000000000042E0020043200205254540045
:10B96000534547474552000010B501460A69CB6868
:10B970009A4204D88C68641EE41AA01801E0D41A14
:10B98000601E10BDFFB585B006460F460F9D0E9C8C
:10B99000002F01DA784200E038460390012004903D
:10B9A00007E007990398FFF7D7FB03900498401C22
:10B9B0000490079903988842F3DA0499089888421A
:10B9C00001D908980490002C06D0002F03DB042036
:10B9D0002840042800D1641E02202840002802D0FC
:10B9E0000898002815D0E807C00F002811D1002CB6
:10B9F0000FD008E0641E2021304600F0D9F8F0682E
:10BA0000002800DA04E0002C02D00498A042F1D310
:10BA100000BFF06800283ADB002F05DA7F422D21B5
:10BA2000304600F0C5F807E004202840042803D180
:10BA30002B21304600F0BCF8F068002827DB0220FC
:10BA40002840022818D1E807C00F002814D1089810
:10BA5000002811D1002C0FD008E0641E30213046A0
:10BA600000F0A6F8F068002800DA04E0002C02D00C
:10BA70000498A042F1D300BFF068002807DB0195CD
:10BA8000009439463046089B079A00F003F809B045
:10BA9000F0BD0000FFB585B0064617461D460E9C5A
:10BAA0000698029001200390019007E03946029821
:10BAB000FFF73CFB02900198401C01900298B842AD
:10BAC000F4D20198854200D901950F98C007C00FA4
:10BAD00000281DD1002C1BD002210F9808400228FD
:10BAE00004D1002D02D13020009001E020200090F0
:10BAF00008E0641E3046009900F05AF8F06800280B
:10BB000000DA04E0002C02D00198A042F1D300BF7B
:10BB1000F068002848DB0FE0012D01D96D1E08E018
:10BB200003990698FFF702FB04900498B84200D2EC
:10BB300003E0039878430390EEE700BF00BF03994A
:10BB40000698FFF7F3FA049003990498484306997E
:10BB5000081A0690154A0498115C304600F028F83F
:10BB6000F068002800DA07E039460398FFF7DEFAAC
:10BB7000039003980028E2D100BF0F98C007C00FC0
:10BB8000002811D0002C0FD008E0641E2021304680
:10BB900000F00EF8F068002800DA04E0002C02D073
:10BBA0000198A042F1D300BF09B0F0BDC403020068
:10BBB00070B504460E46A568681C6168814206D3CC
:10BBC00020684655681CA060E068401CE060616821
:10BBD000A06888420DD1A26821682069FFF7B4FCF3
:10BBE000A168884203D00020C043E06001E000204B
:10BBF000A06070BDF7B582B00446174600200190E2
:10BC0000E56800BF206900900098A84203D9009819
:10BC1000401B461E04E0A1680098281A401C0E1A1A
:10BC2000A068401BB04201D9304601E0A068401B2B
:10BC30000646BE4201D2304600E0384606466168FC
:10BC4000481932460399FFF79BFA01988019019031
:10BC5000039880190390BF1BAD19A068A84200D1BA
:10BC60000025E560002FCDD1019805B0F0BDF7B5F6
:10BC700082B004461546E668A068871BAF4208D923
:10BC8000616888192A460399FFF77AFA7019E0600B
:10BC900010E0019761688819019A0399FFF770FA1B
:10BCA000E81B0190039AD1196068019AFFF768FABE
:10BCB0000198E06005B0F0BD30B47446641E25788C
:10BCC000641CAB4204D3635D5B00E31830BC1847CF
:10BCD0001D46F8E702E008C8121F08C1002AFAD181
:10BCE00070477047002001E001C1121F002AFBD1FC
:10BCF0007047F7B582B00446164600253788002005
:10BD00003080606B00280ED0616B08783B4632466D
:10BD1000039903F039FC054600BF002D02D02846E8
:10BD200005B0F0BD00BF206B00280CD03B4632466A
:10BD3000206B039903F039FF054600BF002D01D0A9
:10BD40002846EDE700BF2E20005D00280DD02E21F3
:10BD5000085D3B463246039902F064FA054600BF8F
:10BD6000002D01D02846DBE700BF2D20005D002814
:10BD70000BD03A463146039800F051FF054600BF0C
:10BD8000002D01D02846CBE700BFA07800280BD0BB
:10BD90003A463146039800F04BFB054600BF002DA4
:10BDA00001D02846BCE700BFE07800280DD0E1783C
:10BDB00048B23B463246039902F086F8054600BF7A
:10BDC000002D01D02846ABE700BF606800280ED0E8
:10BDD0000020616808563B463246039903F0AAFFEB
:10BDE000054600BF002D01D0284699E700BF2089F5
:10BDF00000280FDD01970096062202212046083018
:10BE0000039B04F0D7F9054600BF002D01D028465A
:10BE100086E700BF208A00280FDD019700960722E1
:10BE2000032120461030039B04F0C4F9054600BFEF
:10BE3000002D01D0284673E700BF208B00280FDDBE
:10BE4000019700961522142120461830039B04F018
:10BE5000B1F9054600BF002D01D0284660E700BFBC
:10BE6000206A00280CD03B463246206A039901F034
:10BE70002FFE054600BF002D01D0284650E700BF29
:10BE8000606A00280CD03B463246606A039902F093
:10BE9000B1FB054600BF002D01D0284640E700BF9A
:10BEA0002C20005D00280CDD3B46324620460399DD
:10BEB00003F0B1FB054600BF002D01D028462FE757
:10BEC00000BF207800280CD03B463246204603991C
:10BED00002F0CCFB054600BF002D01D028461FE72D
:10BEE00000BF28461CE70146C878042210400028FD
:10BEF00001D1072070470020FCE710B50122022184
:10BF0000002001F01DF9044600BF002C03D0072CCF
:10BF100001D0204610BD00BF07220221012001F000
:10BF20000FF9044600BF002C03D0072C01D0204697
:10BF3000F0E700BF0A220021084601F001F904469B
:10BF400000BF002C03D0072C01D02046E2E700BF41
:10BF50000020DFE730B5A7B0382119A8FFF729F98D
:10BF6000022118A80171002181710521C1713821B8
:10BF70000BA8FFF71EF9012168468187104910912F
:10BF8000242102A8FFF715F9012168460175402018
:10BF90000690B420079000200A4B02AA0BA900903B
:10BFA00019A800F0F3FA044600BF2546002D04D07E
:10BFB00000BF284600F0A2F800BF00BF27B030BD88
:10BFC0008220002009EE0100014600BF064A5068A9
:10BFD0000122D2058243044B9A600122D20502401D
:10BFE000DA6000BF704700000005005010B5002463
:10BFF00007E0E100064A1268505C012102F0B6FB3E
:10C00000641C044800788442F3D3002010BD000073
:10C010002021002024210020FEB506460C461746AC
:10C02000052F01D20720FEBD02F0B6FC002808D182
:10C0300002F08AFC054600BF002D01D02846F2E739
:10C0400000BF1748066017480470174807600020B3
:10C05000164908601649086017E0E0008019019051
:10C0600014480068009001988078694648700199EA
:10C070000878114A694602F0DDFB054600BF002D35
:10C0800001D02846CFE700BF00BF2046611ECCB2DA
:10C090000028E2D1094A0021094800F07DF8C2E7F2
:10C0A0002021002024210020282100202C210020F4
:10C0B00030210020C0030200D5DF0100F1DC0100C7
:10C0C000BC03020000BF00BF00BF00BF00BFBFF342
:10C0D0004F8F00BF00BF00BF06480749C86000BFC0
:10C0E00000BF00BFBFF34F8F00BF00BF00BF00BF46
:10C0F00000BFFDE70400FA0500ED00E03EB5044690
:10C10000002000900190029002946A4600210248AB
:10C11000FFF7D8FF3EBD00000140000070B50446A7
:10C120000D46204601F0B9FE002805D029462046DC
:10C1300001F0A2FE002070BD0520FCE703460029A7
:10C1400001D10E207047002A03D0501E1040002855
:10C1500001D00920F6E71960501E988000209860F1
:10C16000D86000BFEEE770B504460D46204601F0EA
:10C1700094FEA188884205D82946204601F09BFEFE
:10C18000002070BD0420FCE710B5044603F046F81B
:10C190002060002010BD000010B503460C4600BF13
:10C1A0000D480068002801D1082010BD00BF002AFA
:10C1B00001D10720F9E7002B01D10720F5E7186826
:10C1C000007C002801D00820EFE7196800200874DF
:10C1D0004C744A6100BFE8E738210020FFB581B008
:10C1E0000E4614461F4620468107890F002901D1BB
:10C1F000012100E00021002902D1072005B0F0BD97
:10C20000002C04D100201C4908600720F6E703F049
:10C2100035F81A4807600320194908701648046069
:10C22000183400250CE0E900134A12688818002130
:10C230000170417086704460182171430C196D1CA7
:10C24000032DF0DB00200F4908600F4908700F49EB
:10C2500008701420FFF7CEF803211420FFF724F90B
:10C260001420FFF7D1F8019802F0DEFF02F0D6FFAC
:10C27000074908600020C1E7382100205021002034
:10C28000342100203C2100204C2100204D210020A1
:10C2900040210020FEB504460D461746264600BF45
:10C2A00012480068002801D10820FEBD00BF002C04
:10C2B00001D10820F9E7052D01D20720F5E77069C3
:10C2C000002801D10820F0E7707C012801D1284620
:10C2D00000E00020029003F043FF009701902A46FF
:10C2E0003146029B03F0C6FBDFE700003821002047
:10C2F00070B50446254600BF0B480068002801D1F0
:10C30000082070BD00BF002C02D06869002801D150
:10C310000820F6E70020287403F022FF064629468D
:10C3200003F0D4FBEDE700003821002070B504468F
:10C330000A4801F0ADFD09498988884209D10121E7
:10C34000074802F07DFB0546002D01D0052070BD99
:10C3500000BF21460148FFF7E1FEF8E7882B0020E7
:10C36000F5200020FFB589B004460D4617462A483F
:10C370000760002D02D107200DB0F0BDA88882B261
:10C3800026482968FFF7DAFE064600BF002E01D0D6
:10C390003046F1E700BFA88982B22148A968FFF7BB
:10C3A000CDFE064600BF002E01D03046E4E700BFB8
:10C3B00020221C4901A8FEF7E3FEA068079020791F
:10C3C000002801D0012000E000206946087608A975
:10C3D0000C9808706079002801D00E2000E0002041
:10C3E00069464876E0780390A0780490207802901F
:10C3F000607801900C4901A802F0D8FA064600BF07
:10C40000002E01D03046B7E700BF02F051FB0121FA
:10C41000064802F015FBAFE7F0200020882B002033
:10C42000982B00207C03020019FE0100F52000205B
:10C43000F8B505460C4617462088001DB84201D9BC
:10C440000C20F8BD684679DF064600BF002E01D0FB
:10C450003046F6E700BF0320218868542088401C3E
:10C4600020801920218868542088401C2080208842
:10C4700041196846008803F01BFE2188401820807F
:10C480000020DEE770B50446206802F04BFC20680F
:10C4900002F019FC0021606802F008FCA069144950
:10C4A000052212028918486200BF607D217D024684
:10C4B0000A430F4B05252D025B19DA6600BF0C48B5
:10C4C0006268216802F08DFC207D01280ED10021D8
:10C4D000A06802F0EBFBE06802F024FCE06802F0E8
:10C4E000F2FB0348A268E16802F059FC70BD00004D
:10C4F00000200040F3B593B00D461F211291119119
:10C500001398002818D01398FFF7EDFC044600BFDD
:10C51000002C02D0204615B0F0BD00BF12AA09A918
:10C520001398FFF7E6FB044600BF002C01D020461D
:10C53000F1E700BF09AE02E0002600201290002DB6
:10C5400017D0284603F06AF9044600BF002C01D03A
:10C550002046E0E700BF11AA01A92846FFF7C9FB62
:10C56000044600BF002C01D02046D4E700BF01AF35
:10C5700002E000270020119010A88088C3B210A804
:10C580000089C1B23A46304672DFC4E7F8B50446C6
:10C590000F4615461E4600BF002C01D10E20F8BDE7
:10C5A00000BF00BF002D01D10E20F8E700BF002022
:10C5B000484908704848066048490698086024229F
:10C5C00029464748FEF7DCFD00F026F94548464974
:10C5D00008604648886038214548FEF7EAFD207823
:10C5E00043490870A0788870E078C8706078487017
:10C5F000626920694A6108610846E268A168C26010
:10C600008160E269A169C2618161606A00281BD012
:10C6100038483749486238498160606A008834493F
:10C62000496A0880606A80883149496A88800020A8
:10C6300005E0616A8968095C2F4A1154401C2C4945
:10C64000496A89888142F4D8A06A002824D02B49FD
:10C650002B4881602649886228492548806A816084
:10C66000A06A80882249896A8880A06A0088204957
:10C67000896A0880002005E0A16A8968095C1F4A70
:10C680001154401C1A49896A89888142F4D82C20A7
:10C69000015D174820300173206A00280BD019482B
:10C6A00013490862206A4088096A4880206A008825
:10C6B0000F49096A08806068002804D012480C49B4
:10C6C00048606068486039460948FFF713FF0090EA
:10C6D000009864E7CC200020C4200020C82000205F
:10C6E000802A0020B42A0020A42A0020D42A002076
:10C6F000482A0020F42A0020002B00202C2B0020A8
:10C70000202B0020D0200020D420002070B504462B
:10C710002088102804D0112809D01B286CD11DE0D6
:10C72000A07D012802D1A0883549088065E000205D
:10C7300034490870A0883249098888420DD1012007
:10C7400000F0B4F80546002D07D02F4800680028F7
:10C7500003D028462C49096888474EE0207A0028F3
:10C7600049D12A480078012806D0022813D003288E
:10C7700020D004283DD12FE0022000F097F8054694
:10C78000002D07D020480068002803D028461E4905
:10C79000096888472EE0032000F088F80546002D40
:10C7A00007D019480068002803D0284616490968B0
:10C7B00088471FE0032016490870042000F076F82F
:10C7C0000546002D07D010480068002803D02846F1
:10C7D0000D49096888470DE000200D4908700D4893
:10C7E0000068002804D0084600780A49096888478C
:10C7F00000E000BF00BF00E000BF00BF70BD000050
:10C80000D6200020CD200020C8200020CC200020F1
:10C81000C0200020C420002010B507210148FEF7E9
:10C82000C8FC10BDB920002010B51B4800780128B5
:10C830002FD11A48007800282BD1194800780028F9
:10C8400007D074DF044600BF002C01D0204610BD85
:10C8500000BF01201149087006201249C87000214C
:10C860001048FFF747FE044600BF002C01D02046C9
:10C87000EDE700BF0A48007800F018F80446002CE5
:10C8800007D009480068002803D0204606490968F7
:10C8900088470020DBE70000802A0020CD20002010
:10C8A000CC200020482A0020C820002030B587B0C6
:10C8B0000546A248057001F022FB002805D00120A2
:10C8C0009F490870002007B030BDFFF7A5FF9D48C5
:10C8D0004078002803D09948007801280FD0994863
:10C8E0008078002803D095480078012807D0954823
:10C8F0008078002812D09148007802280ED1924802
:10C900000068002807D001209049087008208E494F
:10C910000968884702E000208C4908708748007841
:10C9200001280BD187484078002804D0884802F0BD
:10C9300009FC002802D10220804908707F48007855
:10C9400002280BD17F488078002804D0804802F06C
:10C95000F9FB002802D10320784908707948007B50
:10C96000002806D175480078032802D104207349B5
:10C9700008707448007E002808D1704800780428A8
:10C9800004D100206D490870724908706E48006833
:10C99000002817D069480078032803D0674800783A
:10C9A00004280FD16748007800280BD06A48007827
:10C9B000002807D1012069490870072062490968E9
:10C9C000884702E0002065490870182101A8FEF799
:10C9D000F0FB002168460171002002906846017357
:10C9E0000020049055480078012806D0022811D074
:10C9F000032823D004287CD152E05548401E0290E1
:10CA00000121684601710021C182818201205149C2
:10CA1000087079E04E48401E02900121684601717D
:10CA20004848008981B26846C1824648808881B200
:10CA30006846818202204749087065E04148808A43
:10CA400081B26846C1823F48008A81B268468182CD
:10CA5000434803F045FC00281ED03A4800780028DF
:10CA60001AD03D480078002816D102206946087384
:10CA70003B48049004203B49C87000213948FFF727
:10CA800039FD044600BF002C01D020461BE700BF43
:10CA900005203049087002E003202E49087033E079
:10CAA0002848808B81B2684681822648008C81B2FA
:10CAB0006846C1822A4803F013FC00281FD0214891
:10CAC000007800281BD024480078002817D10220C5
:10CAD000694608732248049004202249C870002146
:10CAE0002048FFF707FD044600BF002C02D0204677
:10CAF000E9E608E000BF06201649087002E00420BD
:10CB00001449087000E000BF00BF0C4800780028FE
:10CB100008D001A873DF044600BF002C01D02046D6
:10CB2000D1E600BF08480068002804D00948007812
:10CB30000549096888470020C5E60000CC20002090
:10CB4000B8200020802A0020C4200020CF20002010
:10CB5000BA200020C0200020CD200020CE200020C0
:10CB6000A42A0020482A002070B505461C22294628
:10CB70001448FEF705FB00201349087028680028B8
:10CB80000BD0082211482968FEF7FAFA0F487ADF1D
:10CB90000446002C08D0204670BD0C487BDF0446BC
:10CBA000002C01D02046F7E70020C0430849088048
:10CBB000002008490870084A00210848FFF7ECFAED
:10CBC000EAE700004C2B0020EC200020D8200020B9
:10CBD000E2200020E0200020C500020068030200DF
:10CBE00010B504462088102806D0112808D0122835
:10CBF0000ED0502810D107E0204602F09FF90CE03B
:10CC0000204602F0BDF908E0204602F0DFF904E01A
:10CC1000204602F087F900E000BF00BF10BDFEB55E
:10CC200005460C46174620880930B84201D90C2029
:10CC3000FEBD684671DF064600BF002E01D03046BB
:10CC4000F6E700BF0820218868542088401C208017
:10CC50001B20218868542088401C20802188481986
:10CC6000062200A90131FEF78BFA2088801D208062
:10CC700068460078002802D12188685402E001202B
:10CC8000218868542088401C20800020D0E70000C4
:10CC900010B504462046FFF7A3FF21460A4800F0DE
:10CCA00065F8204602F0CCF82046FFF72FFD20461D
:10CCB00000F03AF92146044801F0CEFB2146024833
:10CCC00002F07EFC10BD00007C21002070B586B013
:10CCD00004460E46244B0FCB01AD0FC500BF002C00
:10CCE00002D10E2006B070BD00BF00BF002E01D1E2
:10CCF0000E20F7E700BF0020C043A0823068A0618B
:10CD00000020A075214601A863DF054600BF002D65
:10CD100001D02846E6E700BF2178684681750121E9
:10CD20008182A21C05A90120A0DF054600BF002DBD
:10CD300001D02846D6E700BF3146204602F0F8FA77
:10CD4000054600BF002D01D02846CBE700BF314685
:10CD5000204602F069FF054600BF002D01D028469D
:10CD6000C0E700BF0020BDE76C03020070B50546B8
:10CD70000C46228811A10020FEF74CFC002D01D0AA
:10CD8000002C00D170BD2088102804D0112807D0B5
:10CD900050280FD109E02146284602F0EDF80AE0BC
:10CDA0002146284602F00EF905E02146284602F009
:10CDB0003BF900E000BF00BF00BFE3E765767420E9
:10CDC00074797065203A2025640A000037B584B074
:10CDD00004460D4600BF002C02D10E2007B030BD26
:10CDE00000BFA08A0F49884202D0A07D002801D14F
:10CDF0000820F3E76846008B142801DD0720EDE7E3
:10CE000000200090019002900390A1896846018063
:10CE1000039506A80290012168468170A08A6946A0
:10CE2000A6DFDBE7FFFF000070B586B02A48006888
:10CE3000059000BF00234822284905A802F0B8FC4D
:10CE4000054600BF2E46002E04D000BF3046FFF737
:10CE500055F900BF00BF00BF6A460121002002F063
:10CE600085FC044600BF2546002D04D000BF28469F
:10CE7000FFF744F900BF00BF00BF194E304602F073
:10CE80000DFB044600BF2546002D04D000BF2846F8
:10CE9000FFF734F900BF00BF00BF684602F058FC3E
:10CEA000044600BF2546002D04D000BF2846FFF7EA
:10CEB00025F900BF00BF0B4802F03CFC044600BF50
:10CEC0002546002D04D000BF2846FFF717F900BF04
:10CED00000BF06B070BD0000F802020098210020DB
:10CEE000E81F002091CC010070B505460C460026D5
:10CEF0000B480560002C09D0204602F097FC06463E
:10CF000000BF002E01D0304670BD00BF054800684C
:10CF1000002802D1FEF7F1FF06463046F4E7000094
:10CF2000B0200020B420002070B5054628881028C5
:10CF300002D0112832D118E01A48006800280ED11A
:10CF400000F07AFE044600BF002C07D016480068A7
:10CF5000002803D0204614490968884700BF1148BB
:10CF60000068401C0F49086019E00E480068401E28
:10CF70000C4908600846006800280ED1FEF7BDFF86
:10CF8000044600BF002C07D007480068002803D0E3
:10CF9000204605490968884700BF00E000BF00BF80
:10CFA00070BD0000B4200020B020002010B5032088
:10CFB00000F024FC044600BF002C03D0062C01D056
:10CFC000204610BD00BF0020FBE70000F3B581B094
:10CFD00006460025002400E0641C042C04D2A000B6
:10CFE00029490858B042F7D1042C42D202980028AF
:10CFF00025D0012802D002283AD133E06000201861
:10D0000022490D5C600020184018407800280ED09E
:10D010001F4800680A22504301461E4A1E48006805
:10D02000FFF738F90746002F01D11A480670600053
:10D0300020181649401880781849085518E01648F5
:10D040000068FFF755F91548005D610061180F4A47
:10D0500089188978884204D1600020181146401848
:10D06000857805E06000201808494018457800BF21
:10D0700000BF002D07D00A480068002803D02846CA
:10D08000074909688847FEBD380302001C2A0020B2
:10D0900098200020A820002034030200A9200020AE
:10D0A000A420002010B50246042A0FD2094B1B69A8
:10D0B000D8439300084CE45C0123A3400340002BB9
:10D0C00001D0012300E000230B7001E00020087074
:10D0D000002010BD000500503803020070B5054661
:10D0E000042D06D0072D16D00A2D24D102F0F8FA0F
:10D0F00022E013211148008876DF0446082C09D06D
:10D1000000BF2646002E04D000BF3046FEF7F6FFD3
:10D1100000BF00BF10E0FFF787FB0446082C09D0D2
:10D1200000BF2646002E04D000BF3046FEF7E6FFC3
:10D1300000BF00BF00E000BF00BF70BD8020002026
:10D1400030B503460020042B24D2012A07D101293F
:10D1500003D11C460D34E4B200E00024224600292D
:10D160000FD0012902D0022911D104E05C001C1962
:10D17000094D2A550DE05C001C19074D64196270B9
:10D1800007E05C001C19044D6419A27001E007203F
:10D1900000BF00E0072030BD1C2A002070B5044607
:10D1A000002506480078C007C00F002803D020469D
:10D1B00000F070F80546284670BD00009C20002055
:10D1C000F7B505460E460024274806602748056047
:10D1D00027490298086002202840002822D0002712
:10D1E00006E0012211463846FFF7AAFF04467F1CDD
:10D1F000042F01D2002CF4D0002C05D17208042198
:10D200001C48FEF709FF0446002C02D1FEF7EEFE93
:10D210000446002C05D1184A00211848FEF7BCFF2F
:10D22000044600BFE807C00F00280AD000BF0F2047
:10D230004005134988600020C86000BF0F204005EA
:10D240008861002C05D10F4A00210F48FEF7A4FF8A
:10D250000446002C05D10D4A01210D48FEF79CFF24
:10D2600004462046FEBD0000982000209C2000209F
:10D27000A42000204803020059D801003403020012
:10D280000005005091E201002C030200C9BF01001B
:10D2900030030200F8B50446002500262300FEF7FF
:10D2A0000BFD180D1E1F68B1F9F8F7F6F5F4F3F24F
:10D2B000F1F0EFEEEDECEBEAE9E8E7E600BFF74866
:10D2C00001680F20400588430F2149050840F449B3
:10D2D00088600020C86000BFF248047080E200BF90
:10D2E00000BFEE4801680720800588430F214905EB
:10D2F0000840EB4988600020C86000BF08464068CD
:10D300000F214905484001214905084000280FD058
:10D3100000BF0846E24988600020C86000BF022CB8
:10D3200002D1E120C00001E07D20400106460EE070
:10D3300000BF01204005DA49C8600020886000BFB6
:10D34000022C01D1C82001E0FF2091300646D548CB
:10D35000047064213046FDF7E9FED349096848436B
:10D36000074600223946D1480068FEF793FF05467C
:10D3700036E200BFC94801680720800588430F21B5
:10D3800049050840C64988600020C86000BF0846BB
:10D3900040680F21490548400121490508400028FF
:10D3A0000FD000BF0846BE4988600020C86000BF9B
:10D3B000032C02D11920400101E07D2040010646E6
:10D3C0000EE000BF01204005B549C860002088601C
:10D3D00000BF032C01D1C82001E0FF209130064698
:10D3E000B048047064213046FDF7A0FEAE490968DC
:10D3F0004843074600223946AC480068FEF74AFF1A
:10D400000546EDE100BFA548016807208005884377
:10D410000F2149050840A24988600020C86000BF6C
:10D42000084640680F214905484001214905084048
:10D4300000280FD000BF0846994988600020C860C6
:10D4400000BF042C02D17D20400101E07D2040017D
:10D45000064623E000BF012040059149C860002036
:10D46000886000BF042C16D1FF20913015E0B6E192
:10D47000AAE1A8E195E182E16FE163E127E125E11D
:10D4800023E121E11FE113E1F0E0D9E0C0E0A9E0F0
:10D4900090E05DE014E0FF20913006468148047082
:10D4A00064213046FDF742FE7F490968484307463C
:10D4B000002239467D480068FEF7ECFE05468FE104
:10D4C00000BF764801680720800588430F21490581
:10D4D0000840734988600020C86000BF0846406863
:10D4E0000F214905484001214905084000280ED078
:10D4F00000BF08466A4988600020C86000BF052C4C
:10D5000001D1C82001E07D20400106460EE000BFA9
:10D51000012040056249C8600020886000BF052CDA
:10D5200001D1C82001E0FF20913006465D4804701B
:10D5300064213046FDF7FAFD5B4909684843074618
:10D540000022394659480068FEF7A4FE054647E127
:10D5500000BF524801680720800588430F21490514
:10D5600008404F4988600020C86000BF08464068F6
:10D570000F2149054840012149050840002806D0EF
:10D5800000BF0846464988600020C86007E000BF29
:10D59000012040054249C8600020886000BF414822
:10D5A000047041480022016840480068FEF772FE9E
:10D5B000054615E100BF394801680720800588430A
:10D5C0000F2149050840364988600020C86000BF27
:10D5D00000BF01204005C8600020886000BF3148BE
:10D5E0000470FDE000BF2E49486801218905814390
:10D5F0002B4A9160012189050140D16000BF2A4872
:10D600000022016829480068FEF744FE0546E7E06D
:10D6100000BF23494868012189058143204A916060
:10D62000012189050140D16000BF1F4800688200C8
:10D63000811800221D480068FEF72CFE0546CFE049
:10D6400000BF17494868012189058143144A916048
:10D65000012189050140D16000BF13480022016803
:10D6600012480068FEF716FE0546B9E000BF0C49F7
:10D670004868012189058143094A91600121890592
:10D680000140D16000BF0848006882008118002274
:10D6900006480068FEF7FEFD0546A1E0A020002038
:10D6A0000005005094200020982000202C03020048
:10D6B00000BF0F2040054C49C8600020886000BFB3
:10D6C0004A4804708CE000BF00BF00BF00BF48485C
:10D6D0000068FEF70DFE05461120061B002E23D024
:10D6E000002D21D10120C00542490860012E10D92A
:10D6F000C821714308466421FDF718FD3E490968B9
:10D70000484307460022394639480068FEF7C2FD03
:10D71000054600BF374800680F21490508403249D7
:10D72000C860002088600CE000BF324800680F210C
:10D73000490508402C4988600020C86000BF2D4979
:10D7400008604DE000BF0F20400527498860002099
:10D75000C86000BF2548047042E000BF0720800574
:10D76000214988600020C86000BF00BF012040053B
:10D77000C8600020886000BF1C48047030E000BF13
:10D780000D204005184988600020C86000BF00BF18
:10D7900001208005C8600020886000BF1348047025
:10D7A0001EE000BF0320C0050F4988600020C8604C
:10D7B00000BF00BF03204005C8600020886000BF94
:10D7C0000A4804700CE000BF00BF0F204005064966
:10D7D000C8600020886000BF0448047000E000BFFB
:10D7E00000BF2846F8BD000000050050942000202E
:10D7F00030030200A02000209820002070B50246CF
:10D80000002021E08400124D2C59A400114D641910
:10D810002168012484401440002C01D0032400E03E
:10D820000024234603252D040C46AC4321461C044A
:10D8300021430524240707252D0264198500044E81
:10D840007559AD006151401C0428DBD3002070BD28
:10D85000380302000007005010B50446207802216A
:10D86000FFF7B4FB10BD0000F8B50546134A144994
:10D870000320FFF7A5FC044600BF2646002E04D077
:10D8800000BF3046FEF73AFC00BF00BF69460020EB
:10D89000FFF72AFB044600BF2646002E04D000BF37
:10D8A0003046FEF72BFC00BF00BF68460078022818
:10D8B00001D1012000E000202870F8BDDDD001007A
:10D8C000CD0C00000021C9438200054B995004286B
:10D8D00004DB0B46011F024A4032535470470000DC
:10D8E000A82B002001468800014A1058704700000C
:10D8F000A82B0020F7B585B00B460020C04304904C
:10D90000002A01D0002000E004200390002A01D06A
:10D91000042000E00820029003991EE08800124CC9
:10D920002058401C002817D10846059C00930192FE
:10D9300046B20D4D20352E5585000B4E009B735180
:10D94000019A002A04D166B2051F074F40377E5561
:10D9500000BF48B2049003E0491C02988142DDD325
:10D9600000BF049808B0F0BDA82B00200146014874
:10D9700040567047C82B0020F0B5194B9D44054612
:10D980000C461646002003E0295C6A461154401CF0
:10D99000A042F9DB00206946085561210901FFA872
:10D9A0000830FDF706FC0F48684404726946C16000
:10D9B0000919491E0161FFA8083001F05FFB074605
:10D9C000012F09D1B07D002804D0224629463046D7
:10D9D00001F010FE02F038F8024B14339D44F0BD04
:10D9E000ECF5FFFF000A0000FEB51F4800680028A4
:10D9F00036D01D480068056801F010FC01901B48F6
:10DA000004682146019801F03BFFC61C18480078C5
:10DA1000002801D101F014FCAE4201D2284600E0FA
:10DA2000304604192402240A204601F0F1FB01F0DB
:10DA3000F5FB00900199009801F022FFC71C2046D9
:10DA4000019901F01DFF874209D901F0E7FB074664
:10DA500001F0DEFB2F20FDF73DFB02F0A1F801E015
:10DA600001F00CFCFEBD00003C2100204021002004
:10DA70005421002001460888062808DB088819225E
:10DA8000D201904205DD0888104A904201D007205B
:10DA900070474888062808DB48881922D20190423E
:10DAA00005DD4888094A904201D00720F0E7088840
:10DAB000064A904208D04888904205D008884A8893
:10DAC000904201DD0720E3E70020E1E7FFFF0000CF
:10DAD000FFB581B006460D4614462088801D049986
:10DAE000884202D90C2005B0F0BD3046FFF7C2FFD6
:10DAF000074600BF002F01D03846F4E700BF0520DD
:10DB0000218868542088401C208012202188685475
:10DB10002088401C208022885119308802F0C8FAE1
:10DB200021884018208022885119708802F0C0FA9C
:10DB30002188401820800020D5E710B5044600BF9A
:10DB40002046FEF7DBFA00BF10BD000030B587B0FD
:10DB50001C216846FDF72DFB002000900520C00326
:10DB600001900F20000402900321684601730021F8
:10DB7000C181017409480590094806906846FEF77E
:10DB8000F3FF044600BF2546002D04D000BF284601
:10DB9000FEF7B4FA00BF00BF07B030BDF5EE0100DC
:10DBA0003BDB010038B51F4800F0AEFA002829D150
:10DBB0001D48007800280AD01C484069002820D061
:10DBC00000200090194841696846884719E01848C4
:10DBD0000078002802D11548456801E0134885689F
:10DBE0000022294613480068FEF754FB0446002C27
:10DBF00007D00E488069002803D00C488169204670
:10DC000088470AE009484069002806D001200090B2
:10DC1000064841696846884700BF002002490870ED
:10DC200038BD0000E4200020EC2000204C2B002018
:10DC3000E02000206803020010B501220021084600
:10DC4000FFF77EFA044600BF002C03D0072C01D05A
:10DC5000204610BD00BF072202210120FFF770FA05
:10DC6000044600BF002C03D0072C01D02046F0E76B
:10DC700000BF042202210020FFF762FA044600BF21
:10DC8000002C03D0072C01D02046E2E700BF002083
:10DC9000DFE7000010B500BFEFF30580C105C90D37
:10DCA00000291FD00A46103A50B200280CDA0E4B59
:10DCB0000407240F083CA408A4001B598407E40EA1
:10DCC000E3401B069B0F0BE0084B032424021B19A7
:10DCD0008408A4001B598407E40EE3401B069B0F35
:10DCE000D8B210BD0420FCE71CED00E000E100E02C
:10DCF000F8B5002535E0E8001C490968441821788A
:10DD00000120884006461A4800683040002826D086
:10DD100017480068B04316490860207800F004FEF8
:10DD20000746217801208840124909680840227876
:10DD300039469140884211D16078012800D100E035
:10DD4000002078400121484000906068002804D0FD
:10DD5000009BD9B220786268904700BF00BF681C62
:10DD6000C5B2054800788542C5DBF8BD20210020FA
:10DD7000302100202C21002024210020FEB5044663
:10DD8000254600260FE02A686968A8682B4601929C
:10DD900000910290324607490020FDF73BFC761CBB
:10DDA0000C20704305190320400220180068B0427F
:10DDB000E9DCFEBDD4030200014614480078144A91
:10DDC000127890421DD011480078401C0F4A107004
:10DDD00010460078022801D1002010700B4800780E
:10DDE00080000C4A105808600B4A086812688018B6
:10DDF000094A1060104600680002000A1060012005
:10DE000070470020086000BFFAE700004C210020A6
:10DE10004D2100204421002040210020F0B5034680
:10DE2000002420E0134E306806689E4203D906683D
:10DE3000F61A06601BE006689B1B0668341900266C
:10DE400006600C4E35680B4FC6693E60C668002EF2
:10DE500008D00E193602360A4660C6688660166813
:10DE6000C661156000BF034800680028DAD100BF12
:10DE7000F0BD00003C21002070B504460D462A4646
:10DE80000021204600F00EF8A068401CA06070BD84
:10DE900001468A68C868801A704701468A68C8685F
:10DEA000801A704710B583685B1884882340046823
:10DEB000E35C137010BDC26883881A4003689954EC
:10DEC000C268521CC260704730B504461088C01C3E
:10DED000984201D90C2030BD022015884855108881
:10DEE000401C10800120158848551088401C108067
:10DEF00015884C551088401C10800020EBE738B581
:10DF000000200090684601F06BF90446082C03D00D
:10DF1000002C01D0012038BD082C07D1684600F044
:10DF20000DF80446002C01D00020F4E700980028EA
:10DF300001D00120EFE70020EDE7000001460029B5
:10DF400001D1032070470248406D08600020F9E7C6
:10DF5000042D00203EB500BF684600780109090184
:10DF6000491C009168460078F021884310300090E9
:10DF700000BF092214A168467CDF044600BF254685
:10DF8000002D04D000BF2846FEF7B8F800BF00BF40
:10DF90000020019002901021684681803C21C180C0
:10DFA00000210181FF219131418101A87ADF0446DE
:10DFB00000BF2546002D04D000BF2846FEF79EF87E
:10DFC00000BF00BF3EBD000042656E63686D6172B8
:10DFD0006B000000F8B505460F460120A840044636
:10DFE00018480068FEF784F90646002E00D0F8BDF8
:10DFF00015480068204000281DD1284600F094FCF8
:10E00000002805D01148006820431049086004E04A
:10E010000E480068A0430D4908600B480068204383
:10E020000949086000220A48016806480068FEF7AE
:10E0300031F9064604E004480068A043024908603C
:10E0400000BFD4E7BC030200302100202C210020B7
:10E0500028210020F8B527480078002800D1F8BD15
:10E0600025480068002801D1012000E00020054675
:10E0700022480068002801D1012000E00020064667
:10E0800000BF002D12D1684652DF0446052C01D195
:10E0900001250AE0002C04D000BF2046FEF72EF830
:10E0A00003E0154900980968884700BF002E18D181
:10E0B00013480088009069461248006861DF0446F2
:10E0C000052C01D101260BE0002C04D000BF204616
:10E0D000FEF714F804E00B4800680849096888470F
:10E0E00000BF002D02D0002E00D000E0C9E700BF25
:10E0F00000BFB4E7642100207421002070210020BB
:10E100006C2100206821002001464888064A1288B8
:10E11000904206DB4888044A5288904201DC012084
:10E1200070470020FCE70000D82000200C48008C3D
:10E13000C0B2012812D10A48808C0007000F0028C5
:10E140000CD10748806AF0210840402806D10448D5
:10E15000C06A0840002801D1012070470020FCE778
:10E16000C00F00F01948008CC0B201282CD117480C
:10E17000808C0007000F002826D11448806AF02107
:10E180000840002806D11148C06A0840002801D183
:10E19000012070470D48806AF0210840102806D100
:10E1A0000A48C06A0840002801D10120F1E7074869
:10E1B000806AF0210840302806D10448C06A08402F
:10E1C000002801D10120E4E70020E2E7C00F00F0C1
:10E1D0001348008CC0B201281FD11148808C000761
:10E1E000000F002819D10E48806AF0210840A028AD
:10E1F00006D10B48C06A0840002801D101207047B1
:10E200000748806AF0210840D02806D10448C06A37
:10E210000840002801D10120F1E70020EFE70000CD
:10E22000C00F00F030B504461088C01C984201D9D8
:10E230000C2030BD0220158848551088401C1080E5
:10E240001C20158848551088401C1080012C06D0D1
:10E25000022C08D0032C0AD0042C10D10BE0002093
:10E26000158848550DE001201588485509E0022021
:10E270001588485505E003201588485501E007201A
:10E28000D7E700BF1088401C10800020D1E70000B5
:10E2900010B5044605480078C007C00F002803D019
:10E2A00003480078FEF7F6FF10BD00009C20002018
:10E2B00094200020F8B52148006800902048067896
:10E2C0002EE0F0001F4909684418257824E0182042
:10E2D000684361680F18681CC5B2A078A84200D1D5
:10E2E00000253878022802D0032812D103E078688C
:10E2F00001F072FB0EE007E010490868002101748C
:10E300000E4AC169116000BF0C4800680028F3D1B3
:10E3100000E000BF00BF00BF6078A842D7D100BFB7
:10E320003046711ECEB20028CBD104480168009857
:10E33000814201D00120F8BD0020FCE73C210020F3
:10E340003421002038210020FEB506463C480068F4
:10E3500001903C480078009063E00098C0003A4982
:10E360000968451856E0002E02D03446E66924E0DC
:10E370002978182359436A6850182978491C29704C
:10E380002978AA78914201D1002129704468017846
:10E39000012902D1217C002900D03BE08168616025
:10E3A000C168A1600169E1604169A16127490978FB
:10E3B000002901D00021616000BF2549606809681B
:10E3C000401A0002000A2349884208D220496068A6
:10E3D000096801F055FAA168401820600FE01C4858
:10E3E0006168006801F04CFA0746A068B84203D99A
:10E3F000A068C01B206001E00020206000BF00205A
:10E400006060A060012020740020E061204601F0DF
:10E41000ADFA00BF002EA6D1287869788842A2D133
:10E4200000BF0098411EC9B20091002895D1044850
:10E4300001680198814201D00120FEBD0020FCE767
:10E440003C210020342100203821002055210020CB
:10E4500040210020FFFF7F00F0B5FFB0FFB085B086
:10E4600006460F46002102912348244908600120F6
:10E47000800288803888022802D0032836D107E03D
:10E480001FA10020FDF7C6F8B08A1C4967DF2EE007
:10E490001EA10020FDF7BEF80121890203A8FCF7A8
:10E4A00088FE002416E0144AA01C105A0190201D7A
:10E4B000155A1046A21D811803AA019813182A465E
:10E4C0001846FCF75DFE0299481981B20291A81D19
:10E4D000001984B20848005D0028E4D1B1690091B8
:10E4E00003A93046009B029A984700E000BF00BF96
:10E4F0007FB07FB005B0F0BDBC2500208820002093
:10E50000526571756573740A0000000052656C6590
:10E510006173650A000000008CB02022274902A820
:10E52000FCF72EFE0C206946088502A80B9000BF60
:10E530000023234A05211846FDF750FE054600BF7B
:10E540002E46002E04D000BF3046FDF7D7FD00BF99
:10E5500000BF00BF01F0B8F901F0C2FC01A8FFF74D
:10E5600083F9FEF761FCFFF7F5FC01F09FF8FDF77A
:10E57000F1FCFFF7EBFA13A10020FDF74BF80320A5
:10E58000FEF794F9044600BF2546002D04D000BFD5
:10E590002846FDF7B3FD00BF00BF1448018A0AAA50
:10E5A00013480088A4DF00BF1048018A0AAA104857
:10E5B0000088A5DF00F006FEF6E700000803020071
:10E5C000F42300202A2A2A2A2A2A2A2A2A2A2A2A1C
:10E5D0002A2A2A0A53544152540A2A2A2A2A2A2A1F
:10E5E0002A2A2A2A2A2A2A2A2A0A00007C210020EA
:10E5F00080200020FFB581B005460E461446A8884D
:10E60000871C2088801CC1190498814202D90C20E3
:10E6100005B0F0BDFE2F01D90C20F9E7781C218848
:10E6200070542088401C2080FF202188705420884E
:10E63000401C208022889119288801F039FD21880A
:10E6400040182080A88800280EDDA868002801D185
:10E650000720DDE7AA8823889819A968FCF790FDB0
:10E660002088A988401820800020D1E7FFB583B01A
:10E6700005460F4614462878012805D168780028F9
:10E6800002D1072007B0F0BD2088801C069988427F
:10E6900009D82878012808D12088801C6978411879
:10E6A0000698814201D90C20ECE721880698401A8F
:10E6B000801E86B201962188891CC81901A97DDFB8
:10E6C000029000BF0298002801D00298DAE700BF4C
:10E6D0002878022806D168468088B04202DC0920EA
:10E6E00000900BE0082000902878012805D1687878
:10E6F000B04202DC6878019000E0019668468088AC
:10E70000FE2801D90C20BDE768468088401C21887E
:10E7100078542088401C20802188009878542088D4
:10E72000401C2080218868468088081820800020AE
:10E73000A8E7000070B504460D4629462046FCF7C0
:10E7400077FE00BFE106C90E012088400549086038
:10E7500000BF00BFE106C90E0120884002490860E1
:10E7600000BF70BD80E200E000E100E0FEB50546BC
:10E770000E46284600F002FD002820D02846FFF76C
:10E78000F5F8001F28490F5CBC11032C0CD100BF09
:10E79000264800690121A9400840002801D0032033
:10E7A00000E00220019005E0012C01D1022000E0F0
:10E7B000032001902846019900F091FA32E02846A2
:10E7C00000F0E8FC00282DD02846FFF7CFF80446DB
:10E7D000A000FF30013080B2019020461449512240
:10E7E000120189188200895801221143104A5123CD
:10E7F0001B01D2188300D15000BF019800F0A0FA8D
:10E80000002E0ED02846FFF7B1F80090FFF76AF807
:10E810000746002F04D00121A140084600F0A4FAC9
:10E8200000BF00BFFEBD0000E82B00200005005027
:10E8300000600040F7B584B004460E460020039007
:10E84000204600F08DFC002802D00820039060E0F4
:10E85000F27820460699FFF74DF80546681C002817
:10E8600054D0B078002810D000BFA1002A4A8918DF
:10E87000096802229143084605210907072212026E
:10E880008918A200885000BF0BE077780020009024
:10E890003B46024601460190204600F0E1F900BFE8
:10E8A00000BFF078002826D037781C485121090194
:10E8B0004018A90040581A4908401849512212012D
:10E8C0008918AA0088501548512109014018A9004B
:10E8D000415820021F22120210403A0403231B0455
:10E8E0001A40104301430D48512212018018AA001A
:10E8F000815000BF0CE0281F0A49085C317889016B
:10E90000084342B2281F07490A5401E0042003903B
:10E9100000BF039807B0F0BD000700500060004042
:10E92000FFE0FCFFE82B0020014600BF054800691E
:10E93000C840C007C00F002801D001207047002048
:10E94000FCE700000005005010B5124800790028CF
:10E9500001D0082010BD002404E0204600F02AFC6D
:10E96000601CC4B2202CF8DB002404E02046FEF733
:10E97000A9FF601CC4B2082CF8DB03210620FFF7B6
:10E98000D9FE0120C00700F0EFF901210148017113
:10E990000020DFE7E82B002003480079002801D0A1
:10E9A000012070470020FCE7E82B002070B50446EA
:10E9B0000D461F48C07E002801D0082070BD002CE5
:10E9C00000D11C4C2046FDF75DFD194845601849F3
:10E9D0002069086008464068002814D0267FFF217F
:10E9E0001D31154800F0D8F9FF214531124800F0DB
:10E9F000D3F91249104800F0E0F931460220FFF740
:10EA000099FE00BF00BF00BF00BF04200A490522D5
:10EA100012028918086000BF00BF00200449C875B1
:10EA2000087688750120C8760020887600BFC5E783
:10EA3000F02B00209C030200002000408000020018
:10EA400070B504460D46002617484068002804D0DB
:10EA500081218900154800F0ABF91348C07D0028DA
:10EA60000FD01148007E00280AD00F4840680028C7
:10EA700004D0812189000D4800F09FF9112070BD5C
:10EA80000126002E07D10848C575C460002006493C
:10EA90004876087602E00448046105763246294645
:10EAA000204600F013F8EAE7F02B00200020004099
:10EAB00010B50548807E002804D100F0DDFC01205F
:10EAC0000149887610BD0000F02B0020F8B51646ED
:10EAD0002C48807E002803D1002E01D100F0CCFC10
:10EAE00028484068002845D1FF214531264800F0DC
:10EAF00053F900BF00BFFF212531234800F044F93E
:10EB00000546FF210931204800F03EF90746FF2164
:10EB100045311D4800F038F90446002F03D1002C80
:10EB200001D1002DE7D0002D01D1002C00D007E04D
:10EB300000F0D0FB1348C07D1249497E8842D9DCE1
:10EB400000BF00200F49C875002D01D00320F8BD7B
:10EB5000002C01D00F20FAE70A48807E002804D05C
:10EB60000021094800F03AF903E00421064800F0CA
:10EB700035F904E081218900034800F01EF90020E6
:10EB8000E5E70000F02B00200020004070B50446AF
:10EB90000D4600F05BF8002801D0112070BD04483C
:10EBA0008575846000200249888200F003F8F5E74B
:10EBB000F02B002010B50024FF211D31214800F06A
:10EBC000EBF808211F4800F009F901F011F81E4880
:10EBD0004068002833D115E000BFFF211D311948DE
:10EBE00000F0D2F8002805D11748808AFF210131B2
:10EBF0008842F2D11448808AFF210131884201D035
:10EC000000F0F6FF1048808A0F49897D8842E3DBD7
:10EC10000D48808AFF210131884201D10F240BE089
:10EC200000BFFF211D31074800F0AEF80028F8D0E2
:10EC30000C21044800F0D2F80020034988752046D2
:10EC400010BD000000200040F02B00200348807D14
:10EC5000002801D0012070470020FCE7F02B0020A5
:10EC6000F0B5059C55000D439E0035432602354303
:10EC7000069E360435430526360707273F02F61958
:10EC80008700F551F0BDF0B5059C55000D439E0081
:10EC9000354326023543069E36043543052636079E
:10ECA00007273F02F6198700F551F0BD7CB50546F0
:10ECB0000C4600200090234602460146019028465B
:10ECC000FFF7E1FF7CBD1CB5044600200090034621
:10ECD0000122114601902046FFF7D5FF1CBD10B55B
:10ECE0000522120707231B02D2188300D2580323E0
:10ECF0001B049A4305231B07072424021B198400C5
:10ED00001A510522120707231B02D2188300D2587A
:10ED10000B041A4305231B07072424021B19840034
:10ED20001A5110BD01218140014A916070470000D5
:10ED30000005005001460148081870470060004077
:10ED400010B504462046FFF7F5FF0021016010BD15
:10ED500010B504462046FFF7EDFF0068012800D1FA
:10ED600010BD0020FCE7000001494860704700002A
:10ED70000063004001460922D2018A181068092266
:10ED8000D2018A181060704702465058002801D0FE
:10ED9000012070470020FCE7002242507047052305
:10EDA0001B02C318996005231B02C3181A61704720
:10EDB0000322120282189160704703221202821805
:10EDC0005160704702460320000210184068084056
:10EDD000002801D0012070470020FCE701224250AA
:10EDE000704705231B02C318D96005231B02C318F3
:10EDF0005A61704770B504460D46164622463146A4
:10EE00002846FEF7B9FD70BD70B50546002D10D03F
:10EE1000032D11D10220FEF7C1F9044600BF26469A
:10EE2000002E04D000BF3046FDF768F900BF00BFD8
:10EE300003E000F055FC00E000BF00BF70BD000023
:10EE400070B505462888102806D0112816D013283A
:10EE500027D0522849D136E00720FEF79FF9044613
:10EE600000BF2646002E04D000BF3046FDF746F90D
:10EE700000BF00BFA8881E49088037E00020FEF7C9
:10EE80008DF9044600BF2646002E04D000BF304650
:10EE9000FDF734F900BF00BF0020C04314490880CB
:10EEA00024E000231A468521114800887FDF0446AC
:10EEB00000BF2646002E04D000BF3046FDF71EF9E5
:10EEC00000BF00BF12E000231A4619460848008818
:10EED000A9DF044600BF2646002E04D000BF3046FE
:10EEE000FDF70CF900BF00BF00E000BF00BF70BD20
:10EEF0008020002070B50546287800280ED13B21DF
:10EF00000748008876DF044600BF2646002E04D05E
:10EF100000BF3046FDF7F2F800BF00BF70BD000033
:10EF20008020002010B504460822A1180248FCF7F2
:10EF300027F9FEF737FE10BDE420002010B5044687
:10EF4000A088094908800822214618310748FCF7A3
:10EF500017F90020064908700648C089002801D129
:10EF6000FEF720FE10BD0000E2200020E42000207B
:10EF7000E02000204C2B00208A888282704700000D
:10EF800070B505460020C0430A49088000200A49A0
:10EF900008700A480068FDF7ABF90446002C07D05A
:10EFA00007488069002803D00548816920468847C2
:10EFB00070BD0000E2200020E02000206803020075
:10EFC0004C2B00200022D2438282704770B5054648
:10EFD000AC1D20881249C989884220D16089022845
:10EFE0001DD100BF00BF217B627B12021143084686
:10EFF000C107C90F002902D0FEF7D4FD0FE0094870
:10F000000068FDF775F90646002E07D004488069B0
:10F01000002803D0024881693046884700BF70BD90
:10F020004C2B00206803020070B504460E46B51D47
:10F030002988208A814213D16889022810D100BF13
:10F0400000BF297B6A7B120211430846C107C90F22
:10F05000002902D00120A0750FE00020A0750CE06F
:10F060002888A188884208D1A069002805D06A892B
:10F0700029460C312046A369984770BD70B50446F7
:10F08000002503204002201880680078732806D1EC
:10F09000032040022018C0680078652802D00020B4
:10F0A000C04370BD0320400220188068411C39E035
:10F0B0000878632803D0702803D1012603E00226D4
:10F0C00001E0102600BF00BF3007000F002828D045
:10F0D000002D18D10320400220180068401C032294
:10F0E0005202A2181060802801DBA81ED9E7032075
:10F0F000400220180068401E0C22504305196E6023
:10F10000481CA8600DE068683040002809D0A86855
:10F11000081A28602868002802DC0220C043C0E7E3
:10F120000025491C032040022018C0688842BFD136
:10F13000002D02D00320C043B3E72046FEF71EFE99
:10F140000120AEE70246002105E0505C002801D016
:10F1500001207047491C0629F7D30020F9E7000079
:10F16000014605484056C017401C002801D0012028
:10F1700070470020FCE70000C82B0020014604482F
:10F180004056042801DB012070470020FCE7000006
:10F19000C82B0020014606484056002805DB0448DD
:10F1A0004056042801DA012070470020FCE70000E7
:10F1B000C82B00200022D24301490A5470470000A6
:10F1C000C82B002070B548DF044600BF2546002D3F
:10F1D00004D000BF2846FCF791FF00BF00BF70BD00
:10F1E000014600BF0848006804221040002801D1F1
:10F1F0000820704700BF002901D10E20F9E703481D
:10F20000407808600020F4E71C2100200C2C00202E
:10F2100001490860704700004015014001484068FE
:10F22000704700000015014010B504460348846093
:10F2300003211120FCF738F910BD00000015014032
:10F2400010B5012000040A49486009494039486066
:10F250001120FCF7CFF81120FCF7D6F80120054962
:10F2600008602F20FBF736FF01200349087010BD0E
:10F2700040130140001001405421002010B511201E
:10F28000012181400E4A116000BF012000040D4998
:10F2900088600C494039886001200B4948602F2064
:10F2A000FBF718FF01200849886000200749086023
:10F2B0002F20FBF70FFF00200549087010BD00004C
:10F2C00080E100E040130140001001404021002097
:10F2D0005421002010B51448C07D00280BD1FF2117
:10F2E00009311248FFF758FD00BF104805210902F7
:10F2F0004018806910BDFF2109310C48FFF74CFD13
:10F3000000BF0A480521090240188069C0B20649B9
:10F31000C968054A527E88540348407E401C024911
:10F32000487600BFE6E70000F02B002000200040F8
:10F3300030B58FB004460D460020079000BF6846E8
:10F34000007F01090901491C68460177007FF0210F
:10F35000884310306946087700BF00BF6846407F89
:10F3600001090901491C68464177407FF021884323
:10F3700010306946487700BF6846807F0621884381
:10F38000811C684681771C2108A8FBF712FF08A89A
:10F39000007810218843411808A8017000200990C6
:10F3A0000B900C9007A80D9000200E9021786846D5
:10F3B0008171032181800020009000BF68460078A1
:10F3C00001090901491C684601700078F021884351
:10F3D00010306946087000BF00BF684640780109D8
:10F3E0000901491C684641704078F021884310307B
:10F3F0006946487000BF6846807806218843811CB2
:10F40000684681708078082188430146684681708B
:10F4100080781021884301466846817080784108D1
:10F420004900491C68468170142102A8FBF7C1FEFF
:10F4300001A80290684603900121018200214182C7
:10F440003B218182608823460C3302AA08A9A2DFEF
:10F450000FB030BD7FB504460D46012069460870E7
:10F4600068460472019503480168426868469047FF
:10F470007FBD0000F02B002010B5FF21253106488C
:10F48000FFF78AFCFF2109310348FFF785FC0021C3
:10F490000148FFF7A3FC10BD0020004008B501465D
:10F4A000044800900098884201D0002008BD002048
:10F4B000FCE700008020002010B501460846202807
:10F4C00009DA012282402B4B1A40002A01D0012286
:10F4D00002E0002200E00122002A01D1264810BDEE
:10F4E000084600280CDA254B0407240F083CA40822
:10F4F000A4001B598407E40EE3401B069B0F0BE09E
:10F500001F4B032424021B198408A4001B598407E1
:10F51000E40EE3401B069B0F1A46042A01D3002089
:10F5200006E0002A01D0022A01D1002000E00120DB
:10F53000002802D11048401CD1E71248406800283A
:10F540000DD0480980000F4A1058CB06DB0E01226F
:10F550009A4010434A0992000A4B985008E000BFB5
:10F56000CA06D20E01209040054A106000BF00BFBD
:10F570000020B4E7FC06FFBC012000001CED00E009
:10F5800000E100E05821002030B504461088C01C7E
:10F59000984201D90C2030BD0220158848551088AA
:10F5A000401C10801120158848551088401C108080
:10F5B00010880C541088401C10800020EBE70000DD
:10F5C00070B505460C462088132804D103A10020FD
:10F5D000FCF720F800E000BF00BF70BD64656D61FE
:10F5E0006E64652064652073656375726974650A6D
:10F5F0000000000070B504460D460020134607E0E9
:10F60000142B01D9142600E01E4631464018131A67
:10F610009042F5D170BDFEB507460E461446B86A55
:10F62000002801D10720FEBD0020019037E0B96A13
:10F630000C22019850430D18A888801C0090009857
:10F64000FE2801D90C20EEE70098401C2188705458
:10F650002088401C20801620218870542088401C5F
:10F66000208022889119288800F022FD21884018E6
:10F670002080A88800280EDDA868002801D1072076
:10F68000D1E7AA8823889819A968FBF779FD208813
:10F69000A988401820800198401CC0B201902C20FD
:10F6A000C15D01988142C2DC0020BCE738B5002072
:10F6B00000900948009069460848FDF707FB04469A
:10F6C00000BF2546002D04D000BF2846FCF716FDDC
:10F6D00000BF00BF38BD0000F5ED01007C21002017
:10F6E00070B50020FDF75AFD044600BF2546002DE9
:10F6F00004D000BF2846FCF701FD00BF00BFFDF7A6
:10F7000055FC044600BF2546002D04D000BF284606
:10F71000FCF7F4FC00BF00BF3CDF044600BF2546F9
:10F72000002D04D000BF2846FCF7E8FC00BF00BF56
:10F7300070BD0000014600BF002901D10E207047B6
:10F7400000BF024801600020F9E70000702100209E
:10F750007CB50446044800900098019001A9204619
:10F7600060DF054628467CBD8020002070B5054638
:10F770000E46144614212046FBF71BFD0120208075
:10F78000002121610020207326726572607A0028B2
:10F7900001D00121A172002070BD70B504460D4654
:10F7A0001646324629462046FCF78CFC70BD000008
:10F7B000FFB581B00C4616461F46002C02D107202B
:10F7C00005B0F0BD20468107890F002901D1012134
:10F7D00000E00021002901D10720F1E70A48046078
:10F7E0000A4806800A4807600A49019810DF054662
:10F7F000002D01D02846E3E70120074908701620B4
:10F80000FFF75AFEDCE70000682100206C21002091
:10F81000602100209BF70100642100200146C87888
:10F82000002801D0072070470020FCE77CB5044683
:10F8300001A90020FDF736FC054600BF002D01D0D0
:10F8400028467CBD00BF69460120FDF72BFC05461C
:10F8500000BF002D01D02846F3E700BF68460078BE
:10F86000002802D00220207008E0684600790028B5
:10F8700002D00B20207001E0002020700020E0E783
:10F880000246501A0002000A7047704770B50446DD
:10F890000C480068002810D00A4AA1696069126803
:10F8A0009047054600BF2E46002E04D000BF3046CC
:10F8B000FCF724FC00BF00BF02E06169A069884733
:10F8C00070BD00005021002070B50C4A01210C4889
:10F8D000FCF762FC044600F0C1F80A48FCF754FC4F
:10F8E00000BF2546002D04D000BF2846FCF706FCCB
:10F8F00000BF00BF0348006870BD00008BF8010026
:10F900002803020090200020FEB50020019011483D
:10F910000468114807686846FEF74EFA0546FEF788
:10F92000C9FC0646002D05D001AA21460098FEF725
:10F9300075FA01260198FEF707FD002800D0012680
:10F94000002E02D03846FEF74FF800200349087019
:10F95000FEBD0000402100203C2100205521002058
:10F9600010B51420FBF75AFD10BD000010B5194961
:10F970000968002902D1174908602AE0154A016880
:10F980001268126891420DD8124909680968026824
:10F99000891A104A126811600E490968C1610D493F
:10F9A000086016E002680B4C2368216803E00C68CD
:10F9B000121B0B46C969002902D00C689442F6D389
:10F9C000002902D00C68A41A0C600260C161D861E1
:10F9D00000BF10BD3C21002030B50246164C216806
:10F9E000084604E0904200D103E00146C0690028C7
:10F9F000F8D100BF002800D130BD814211D10E4C9A
:10FA00002468E4690C4D2C602C462468002C08D135
:10FA100001240A4DAC600024094D2C600124094DDD
:10FA20002C700368C469CC61C869002802D00468DE
:10FA3000E418046000BFDFE73C2100200010014013
:10FA4000402100205521002010B503480068FCF734
:10FA50004FFC00F003F810BD2803020010B500228F
:10FA60000121C90302480068FCF714FC10BD000026
:10FA700028030200FFB581B005460E461746E9008F
:10FA8000114A12688818694600F07BFB0446002C76
:10FA900002D1042005B0F0BD012020706660FFF7A0
:10FAA000BDFBA060E760049820610A986061E900EE
:10FAB000054A126888186946097800F079FBFFF753
:10FAC0004FFF0020E6E7000038210020F8B504468B
:10FAD0000E46E1000C4A12688818694600F051FB96
:10FAE0000546002D01D10420F8BD022028706E606B
:10FAF000E100054A126888186946097800F058FB49
:10FB0000FFF72EFF0020EFE738210020F8B51F484F
:10FB10000068002839D00027FFF780FB00901C48C0
:10FB200001680098FFF7ACFE06461848056811E02A
:10FB30002868B04200D90FE02868361A2868C7192B
:10FB40002C46ED69207C002804D00020207420463B
:10FB5000FFF79CFE002DEBD100BF0E4800780E4948
:10FB60000978884209D10C480078401CC0B20A4983
:10FB70000870022801D10020087007480078800032
:10FB800006490F50FFF7ECFE00BFF8BD3C210020F6
:10FB9000402100204C2100204D2100204421002044
:10FBA00010B51120FBF73AFC10BD70B504461D4698
:10FBB00010881230A84201D90C2070BD112016887F
:10FBC00088551088401C1080102016888855108891
:10FBD000401C10800F2307E0E05C16888855581EF3
:10FBE00043B21088401C1080002BF5DA0020E4E7B7
:10FBF00010B5FF211D310A48FFF7CEF8094880688B
:10FC00000849898A445C0748808A401C05498882E3
:10FC100020460349052212028918C86100BF10BDA1
:10FC200000200040F02B002030B58FB004460D4678
:10FC30001C2108A8FBF7BDFA08A800780821884312
:10FC4000411808A80170007804218843011D08A804
:10FC50000170002009900B900C900D900E9021786F
:10FC600068468172022101810020019000BF684630
:10FC7000007901090901491C684601710079F021E8
:10FC8000884310306946087100BF00BF684640795C
:10FC900001090901491C684641714079F0218843F6
:10FCA00010306946487100BF684680790621884354
:10FCB000811C684681718079082188430146684625
:10FCC000817180791021884301466846817180796D
:10FCD00041084900491C68468171142103A8FBF7BB
:10FCE00068FA02A8039001A8049001216846818265
:10FCF0000021C1823B2101836088231D03AA08A93A
:10FD0000A2DF0FB030BD00001FB5044600206946D9
:10FD10000870684604720648806801900020044913
:10FD20008875084601684268684690471FBD000014
:10FD3000F02B002030B504461088C01C984201D931
:10FD40000C2030BD0220158848551088401C1080BA
:10FD50000A20158848551088401C108015884C557D
:10FD60001088401C10800020EBE7000070B50546AD
:10FD700023A10020FBF74EFC2878002804D001289E
:10FD800035D0022839D12CE02049214A1278881830
:10FD9000FCF7CCFA1E480078401C1D490870084644
:10FDA0000078401E1949085C0A2803D018480078DA
:10FDB000142815DB1648027814491648FDF706F892
:10FDC0000446082C09D000BF2646002E04D000BFF0
:10FDD0003046FCF793F900BF00BF00200C490870C3
:10FDE0000CE000BF6868FCF789F900BF06E000BFBF
:10FDF0006868FCF783F900BF00E000BF00BF70BD7A
:10FE000055617274206576656E740000E0210020F3
:10FE1000862000207C2100207CB504460E462078F8
:10FE2000012828D1606801782848FCF79CF905462C
:10FE3000002D08D0012069460870019568462449C4
:10FE4000096888470BE02148FEF722F8012806D10F
:10FE500000206946087068461D49096888471B48A4
:10FE6000FEF716F819498988884203D801211948F4
:10FE7000FEF7E6FD28E0207802280CD169460870DC
:10FE8000E068019001211348FEF7DAFD6846104949
:10FE90000968884718E02078002815D10E490F48D6
:10FEA000FCF73CF9002803D101210B48FEF76EFE58
:10FEB0000A48FDF7EDFF002806D1032069460870C7
:10FEC00068460349096888477CBD0000882B0020EC
:10FED000F0200020F5200020F4200020982B0020A6
:10FEE00030B587B0114A07CA04AB07C300BF10483A
:10FEF0000090FF20013001900E480290FF20013059
:10FF0000039003230C4A694604A8FCF72BFA044625
:10FF100000BF00BF2546002D04D000BF2846FCF7D7
:10FF2000EDF800BF00BF07B030BD0000FC020200CA
:10FF3000F4210020F42200206DFD01007FB5012195
:10FF400049025948FEF73EFF002830D0FF212531F5
:10FF50005548FEF719FF002829D0FF2125315248C6
:10FF6000FEF71AFF812189004F48FEF721FF4F4815
:10FF7000807E002803D104214B48FEF72FFF02208A
:10FF8000694608704848FEF7F5FE03904748C17D72
:10FF9000684601724548C068019000204349C87511
:10FFA0000876084601684268684690473EE00421AA
:10FFB0003D48FEF707FF002838D0FF2109313A48B5
:10FFC000FEF7E2FE002831D0FFF784F93748C07D04
:10FFD0003649497E884229D13448007E002810D015
:10FFE0003248C468457E007E3049C87508460069BD
:10FFF000C86000200876487621462846FFF72AFA8E
:020000040002F8
:1000000014E02A48807E002803D104212648FEF708
:10001000E5FE812189002448FEF7CAFE002023491D
:10002000C8750A46D168507EFFF714FAFF211D31CA
:100030001D48FEF7A9FE002815D01C48808A1B49E0
:10004000897D884202DAFFF7D3FD0CE0FF211D31E4
:100050001548FEF7A1FE1548807D002803D01349FE
:10006000887DFFF751FEFF2145310F48FEF78CFEDA
:10007000002818D0FF2145310B48FEF78DFE0B48B4
:10008000807E002803D000210748FEF7A7FE07481E
:10009000C07D002807D000200449C8750A46D168F1
:1000A000507EFFF7D7F97FBD00200040F02B0020E5
:1000B00002460A70FF200002104000124870022021
:1000C0007047000038B5054620480088204988421E
:1000D0003BD020480078401C1E4908701E48007B19
:1000E000097888420FDB1D491848008875DF0446EF
:1000F000002C07D018488069002803D01648816971
:100100002046884721E00020124908701248007CF0
:1001100000280FD03B210D48008876DF0446002CD4
:1001200007D00D488069002803D00B48816920461C
:10013000884700BF08484069002806D0002000908A
:10014000054841696846884700BF38BDE220002065
:10015000FFFF0000E02000204C2B0020D8200020D2
:1001600010B5FDF797FD012802D0032804D101E066
:10017000002403E0012401E0022400BF00BF204668
:1001800010BD70B502460B465078401CC1B2907845
:10019000884200D100211078884201D1002070BD32
:1001A000197050781826704355682C182046F6E7C9
:1001B00041707047FFB583B015460D9F0C9E0197A7
:1001C00000960222069B0499039800F019F8044651
:1001D00000BF002C02D0204607B0F0BD00BF019741
:1001E000009610222946069B039800F009F8044661
:1001F00000BF002C01D02046EEE700BF0020EBE757
:10020000FFB587B006461D46109C0020069020884A
:10021000059000274DE0B900706841180A886846CB
:1002200082804988C180002202A901A865DF03906D
:1002300000BF0398002802D003980BB0F0BD00BFA8
:100240006846017A0998814232D10698002801D087
:10025000002000E00220009020886946097A4118B9
:10026000009809181198814201DD0C20E5E70698F5
:1002700000280AD12088401C2080218808986854D2
:100280002088401C2080012006902088421902A965
:1002900001A865DF039000BF0398002801D00398F0
:1002A000CBE700BF21886846007A0818208000BF8D
:1002B0007F1C3088B842AEDC069800280ED021881A
:1002C0000598401C081A80B204900498FF2801DDAC
:1002D0000C20B2E70498C1B2059829540020ACE77D
:1002E00001460879002802D1087B002801D00120AE
:1002F00070470020FCE70000010000070B09080A16
:100300000100000000E0D701616263646566676810
:10031000696A6B6C6D6E6F707172737475767778D5
:10032000797A000000000000BC290020DC290020B0
:10033000FC290020282A00201100000012000000E3
:10034000130000001400000011000300CDCF0100D5
:1003500012000300CDCF010013000300CDCF010038
:1003600014000300CDCF0100682B00209ECADC24BE
:100370000EE5A9E093F3A3B50000406E090000006C
:100380000B0000000A000000080000000000000050
:100390000000000000E0D701030000000900000099
:1003A0000B0000000A000000080000000000000030
:1003B0000000000000E0D70103000000E42C002052
:1003C000030000003031323334353637383941429A
:1003D000434445462A2A2A0A576F7264206E203AFF
:1003E0002025640A4164647220706172616D203A54
:1003F0002025640A74797065203A2025782C206CB9
:10040000656E203A2025640A416464722073746129
:1004100072743A2025640A0038040200802000200B
:10042000FC000000D4BC0100340502007C21002047
:100430009C180000E4BC0100FFFF01000200000066
:1004400000000000000000000000000000000000AC
:10045000000000000000000000000000000000009C
:10046000000000000000000000000000000000008C
:10047000000000000000000000000000000000007C
:100480000000000000000000000000000000FFFF6E
:10049000000000000000000000000000000000005C
:1004A000000000000000000000000000000000004C
:1004B000000000000000000000000000000000003C
:1004C000000000000000000000000000000000002C
:1004D000000000000000000000000000000000001C
:1004E000000000000000000000000000000000000C
:1004F00000000000000000000000000000000000FC
:1005000000000000000000000000000000000000EB
:1005100000000000000000000000000000000000DB
:1005200000000000000000000000000000000000CB
:040530000024F400AF
:040000050001B0C185
:00000001FF
